:020000040800F2
:1000000000000320912900082309000825090008A1
:1000100027090008290900082B0900080000000032
:100020000000000000000000000000002D09000892
:100030002F090008000000003109000833090008FA
:10004000E9290008E9290008E9290008E929000848
:10005000E9290008E9290008E9290008E929000838
:10006000E9290008E9290008E9290008E929000828
:10007000E9290008E9290008E9290008E929000818
:10008000E9290008E9290008E9290008E929000808
:10009000E9290008E9290008E92900083B090008C6
:1000A000E9290008E9290008E9290008E9290008E8
:1000B000E9290008E9290008E9290008E9290008D8
:1000C000E9290008E9290008E9290008E9290008C8
:1000D000E9290008E9290008E9290008E9290008B8
:1000E000E9290008E9290008E9290008E9290008A8
:1000F000E9290008E9290008E9290008E929000898
:10010000E9290008E9290008E9290008E929000887
:10011000E9290008E9290008E9290008E929000877
:10012000E9290008E9290008E9290008E929000867
:0C013000E9290008E9290008E929000875
:10014000034613F8012B002AFBD1181A0138704717
:1001500001F0FF01102A2BDB10F0070F08D010F878
:10016000013B013A8B422DD010F0070F42B3F6D17C
:10017000F0B441EA012141EA014122F007047FF095
:1001800000070023F0E80256083C85EA010586EAEC
:10019000010685FA47F5A3FA87F586FA47F6A5FA28
:1001A00087F68EB9EED1F0BC01F0FF0102F0070234
:1001B00032B110F8013B013A83EA010313B1F8D1DF
:1001C0000020704701387047002D06BF35460338C0
:1001D000073815F0010F07D1013015F4807F02BFF9
:1001E000013015F4C03F0130F0BC0138704700BF4A
:1001F00053B94AB9002908BF00281CBF4FF0FF318E
:100200004FF0FF3000F00CB8ADF1080C6DE904CEF2
:1002100003F098F8DDF804E0DDE9022304B070474C
:10022000704700BF10B5054C237833B9044B13B1A8
:100230000448AFF300800123237010BD6400002048
:10024000000000000036000808B5034B1BB103494D
:100250000348AFF3008008BD0000000068000020E4
:1002600000360008F0B58BB000240594069407947E
:10027000089409944FF0B043DA6C42F00402DA6457
:10028000DA6C02F004020492049ADA6C42F0010281
:10029000DA64DA6C02F001020392039ADA6C42F03B
:1002A0000202DA64DA6C02F002020292029ADA6C5A
:1002B00042F00802DA64DB6C03F008030193019B4F
:1002C00001223C214FF0904000F013FE2D4F2246BA
:1002D0004FF22301384600F00CFE2B4D22464FF41E
:1002E0008861284600F005FE22464FF480614FF0F9
:1002F000904000F0FEFD40F23C4305930126069637
:100300000794089405A94FF0904000F011FD4FF4B8
:10031000707305934FF4881306930223079305A97E
:100320004FF0904000F004FD1023059306940794CD
:1003300005A9284600F0FCFC4FF22303059306961E
:100340000794089405A9384600F0F2FC4FF488633E
:10035000059306960794089405A9284600F0E8FC42
:10036000032305930694079405A9084800F0E0FCD0
:1003700022462146172000F0B3FC172000F0C0FCF5
:100380000BB0F0BD0004004800080048000C004815
:1003900038B5044600F044FCCD4B1860CD4B1B68CB
:1003A000C01A642800D838BDCB494FF470730B6075
:1003B00000254D6002238B60CD604FF0904000F02F
:1003C000B7FC012204214FF0904000F092FD2A4634
:1003D00008214FF0904000F08CFD2A4610214FF08C
:1003E000904000F086FD2A4620214FF0904000F01A
:1003F00080FD402C00F0A480802C00F0AD80B4F58E
:10040000807F00F0B580B4F5007F00F0BE80002250
:1004100004214FF0904000F06CFD012208214FF0C4
:10042000904000F066FD002210214FF0904000F057
:1004300060FD002220214FF0904000F05AFD402C3A
:1004400000F0B080802C00F0B980B4F5807F00F01F
:10045000C180B4F5007F00F0CA80002204214FF073
:10046000904000F046FD002208214FF0904000F03F
:1004700040FD012210214FF0904000F03AFD002293
:1004800020214FF0904000F034FD402C00F0BC8063
:10049000802C00F0C580B4F5807F00F0CD80B4F5ED
:1004A000007F00F0D680002204214FF0904000F041
:1004B00020FD002208214FF0904000F01AFD00229C
:1004C00010214FF0904000F014FD012220214FF048
:1004D000904000F00EFD402C00F0C880802C00F011
:1004E000D180B4F5807F00F0D980B4F5007F00F0B2
:1004F000E280012204214FF0904000F0FAFC01223A
:1005000008214FF0904000F0F4FC012210214FF040
:10051000904000F0EEFC012220214FF0904000F0CE
:10052000E8FC6D494FF488134B6002238B604FF059
:10053000904000F0FDFB664B1A68664B1A6032E78C
:1005400040214FF0904000F0CDFC00283FF454AF24
:10055000624B31221A705AE780214FF0904000F030
:10056000C1FC00283FF44BAF5C4B32221A704EE7BF
:100570004FF480714FF0904000F0B4FC00283FF43D
:1005800042AF564B33221A7041E74FF400714FF0DF
:10059000904000F0A7FC00283FF439AF4F4B4122B8
:1005A0001A7034E740214FF0904000F09BFC002887
:1005B0003FF448AF494B34221A704EE780214FF088
:1005C000904000F08FFC00283FF43FAF434B3522B2
:1005D0001A7042E74FF480714FF0904000F082FCB7
:1005E00000283FF436AF3D4B36221A7035E74FF402
:1005F00000714FF0904000F075FC00283FF42DAFE3
:10060000364B42221A7028E740214FF0904000F00C
:1006100069FC00283FF43CAF304B37221A7042E7A8
:1006200080214FF0904000F05DFC00283FF433AF94
:100630002A4B38221A7036E74FF480714FF0904001
:1006400000F050FC00283FF42AAF244B39221A70E6
:1006500029E74FF400714FF0904000F043FC002870
:100660003FF421AF1D4B43221A701CE740214FF08D
:10067000904000F037FC00283FF430AF174B2A229F
:100680001A7036E780214FF0904000F02BFC0028D4
:100690003FF427AF114B30221A702AE74FF48071D4
:1006A0004FF0904000F01EFC00283FF41EAF0B4BB3
:1006B00023221A701DE74FF400714FF0904000F0B4
:1006C00011FC00283FF415AF044B44221A7010E7C8
:1006D00084000020880000208C0000208000002082
:1006E00072B6FEE730B59BB04822002108A802F0A0
:1006F0009DF90024019402940394049405940694B3
:1007000007944FF0B045EB6823F07003EB60EB68A3
:1007100023F0030343F00103EB6000F081FCD5F804
:10072000903023F01803C5F890301D4A136823F465
:10073000C06343F400731360136803F4C063009351
:10074000009B2F2308934FF48033099301230A93CE
:100750004FF480720B920F9340230C9310946023FC
:10076000119305230D93139408A800F05FFD90B931
:100770006F230193022302930023039304930593B1
:1007800006930793012101A801F0DCF828B901F0D4
:100790008DFC1BB030BDFFF7A3FFFFF7A1FF00BF2B
:1007A0000004005800B595B050220021684602F0C0
:1007B0003DF94FF400530093684601F0FEFA10B97A
:1007C00015B05DF804FBFFF78BFF000000B589B0A2
:1007D00000F004FAFFF786FFFFF7E4FFFFF742FDA2
:1007E00000F0EEF800F064F900F050F80122042166
:1007F0004FF0904000F07DFB012208214FF0904027
:1008000000F077FB012210214FF0904000F071FBC7
:10081000012220214FF0904000F06BFB154C4FF06F
:10082000FF3306221449204601F0FAFE4FF0FF3351
:1008300004221249204601F0F3FE4FF0FF33042258
:100840000F49204601F0ECFE0E4B1A78002AFBD02F
:100850000D49684602F0CAF86846FFF771FC4FF090
:10086000FF3382B26946034801F0DAFE054B0022ED
:100870001A70E9E7C4000020443600084C3600082E
:1008800054360008800000205C36000808B50A488D
:100890000A4B0360002343607F228260FF22C26014
:1008A00003618361C361436101F03EFC00B908BD8F
:1008B000FFF716FFFBE700BFA00000200028004064
:1008C00010B596B004465022002102A802F0AEF8FE
:1008D0002268124B9A4201D016B010BD4FF400634B
:1008E00002934FF40073129302A801F066FA88B9DC
:1008F0004FF0B043D3F8902042F40042C3F8902068
:100900009A6D42F480629A659B6D03F48063019353
:10091000019BE1E7FFF7E4FEEAE700BF00280040A3
:100920007047FEE7FEE7FEE7FEE7FEE77047704729
:10093000704708B500F068F908BD08B5402000F020
:10094000DDFA802000F0DAFA4FF4807000F0D6FA79
:100950004FF4007000F0D2FA08BD0000164AD2F839
:10096000883043F47003C2F888304FF0B0431A68FF
:1009700042F001021A604FF4E0229A601968A2F175
:10098000A262A2F205120A401A60D3F8942022F063
:100990000502C3F89420D3F8982022F00102C3F88E
:1009A0009820064ADA601A611A6822F480221A60D6
:1009B00000229A61704700BF00ED00E000100422A1
:1009C00008B51748174B03604FF4165343600023D4
:1009D0008360C36003610C2242618361C36103626F
:1009E0004362836201F0EAFE70B900210C4801F015
:1009F0005EFF60B900210A4801F07EFF50B9084847
:100A000001F036FF48B908BDFFF76AFEEDE7FFF7D2
:100A100067FEEFE7FFF764FEF1E7FFF761FEF2E73D
:100A2000C40000200038014010B59CB004460021ED
:100A30001791189119911A911B91502203A801F056
:100A4000F5FF2268184B9A4201D01CB010BD01235B
:100A5000039303A801F0B1F910BB4FF0B0431A6E35
:100A600042F480421A661A6E02F480420292029A9E
:100A7000DA6C42F00202DA64DB6C03F002030193E9
:100A8000019BC0231793022318930123199300237A
:100A90001A9307231B9317A9044800F049F9D4E7D8
:100AA000FFF71EFED9E700BF0038014000040048F0
:100AB00008B50A480A4B0360082343600223836099
:100AC0000361002343618361C361036200F024FA80
:100AD00000B908BDFFF704FEFBE700BF5801002086
:100AE0000068004010B59CB0044600211791189191
:100AF00019911A911B91502203A801F097FF2268C7
:100B0000214B9A4201D01CB010BD4FF48073039367
:100B1000182304934FF4003305934FF000730693AA
:100B20004FF0005307934FF0807308934FF08063AA
:100B3000109303A801F041F918BB4FF0B044E36CE7
:100B400043F00103E364E36C03F001030293029BAF
:100B50004FF4C053179302231893002319931A9349
:100B60000A231B9317A94FF0904000F0E1F8A36D02
:100B700043F08063A365A36D03F080630193019B41
:100B8000C1E7FFF7ADFDD8E700680040114B1B78C7
:100B90000BB90120704710B5044600F037FB0D4B30
:100BA0001A784FF47A73B3FBF2F3B0FBF3F000F072
:100BB000ABF868B90F2C01D901200AE000222146C8
:100BC0004FF0FF3000F08CF8034B1C60002000E079
:100BD000012010BD0C0000201000002010B5094AB3
:100BE000136843F480731360032000F067F800205B
:100BF000FFF7CCFF10B10124204610BD0446FFF7DB
:100C00008FFEF9E700400058034B1B78034A116838
:100C10000B441360704700BF0C0000204C04002000
:100C2000014B1868704700BF4C040020014B186846
:100C3000704700BF10000020002807DB00F01F02F3
:100C4000400901239340024A42F82030704700BF18
:100C500000E100E0002808DB0901C9B200F16040B2
:100C600000F5614080F80013704700F00F000901A3
:100C7000C9B2014B1954704714ED00E000B500F003
:100C80000700C0F1070CBCF1040F28BF4FF0040CA3
:100C9000031D062B0FD9C31E4FF0FF3E0EFA0CF0BA
:100CA00021EA000199400EFA03FE22EA0E0241EA0F
:100CB00002005DF804FB0023EEE70000074AD3685A
:100CC00023F4E0631B041B0C000200F4E060034308
:100CD00043F0BF6343F40033D360704700ED00E09E
:100CE00010B50446054BD868C0F30220FFF7C6FFD5
:100CF00001462046FFF7AEFF10BD00BF00ED00E04B
:100D000008B5FFF799FF08BD0138B0F1807F0BD21D
:100D10004FF0E0235861054AF02182F823100020AB
:100D2000986107221A6170470120704700ED00E0CA
:100D3000F0B5002366E085685E000324B44025EA30
:100D40000405CC68B4402C438460456825EA0C0552
:100D50004C68C4F300149C402C43446063E0DD08FD
:100D6000083550F8254003F0070C4FEA8C0C4FF083
:100D70000F0E0EFA0CFE24EA0E0E0C6904FA0CF4A7
:100D800044EA0E0440F8254064E0042400E0002416
:100D900004FA0EF42C430CF1020C4F4D45F82C4094
:100DA0004E4C2568D44325EA02064F6817F4801F8D
:100DB00001D042EA0506494D2E606D6804EA050639
:100DC0004F6817F4001F01D042EA0506434D6E60DC
:100DD000D5F8805004EA05064F6817F4803F01D02B
:100DE00042EA05063D4DC5F88060D5F884502C4098
:100DF0004E6816F4003F01D042EA0504374AC2F8B3
:100E0000844001330A6832FA03F464D04FF0010CD5
:100E10000CFA03FC1CEA0202F3D04C6804F0030451
:100E2000013C012C87D94C6804F00304032C0CD03E
:100E3000C4685D004FF0030C0CFA05FC24EA0C0CAE
:100E40008C68AC4044EA0C04C4604C6804F00304B1
:100E5000022C84D004684FEA430E4FF0030C0CFAC6
:100E60000EFC24EA0C0C4C6804F0030404FA0EF4A3
:100E700044EA0C0404604C6814F4403FC1D04FEACB
:100E8000930C0CF10205144C54F8255003F0030E9A
:100E90004FEA8E0E0F2404FA0EF425EA0405B0F191
:100EA000904F3FF474AF0E4CA0420ED004F5806416
:100EB000A0420CD004F58064A0420AD004F58064FE
:100EC000A0423FF462AF072462E7012460E70224F6
:100ED0005EE703245CE7F0BD000001400008005815
:100EE000000400480369194201D001207047002026
:100EF00070470AB1816170478162704708B5054B40
:100F0000DB68034200D108BD024BD860FFF740FA0E
:100F1000F9E700BF00080058002869D030B587B055
:100F2000044690F8A9323BB1032384F8A932206823
:100F300001F007FD00231BE080F8A832FFF7D2FD87
:100F4000F2E75A1C02EB820104EBC1010120487058
:100F500002EB820104F8313004EBC1000021C170C2
:100F600003EB830004EBC0008163C1630164D3B26F
:100F700060688342E5D3002316E003EB830204EBB1
:100F8000C202002182F8691182F8683182F86B117F
:100F9000C2F87811C2F87C1103EB830204EBC202A1
:100FA000C2F880110133DBB29842E6D8A4465CF85F
:100FB000105BEE46BCE80F00AEE80F00DCF8003036
:100FC000CEF80030231D0ECB284601F0C4FC0023D0
:100FD00084F82430012384F8A932E369012B02D07C
:100FE000002007B030BD204600F004F80020F8E7EC
:100FF00001207047034602680121C0F8E812002072
:1010000083F8E002B2F854309BB20B43A2F854309C
:10101000B2F854309BB243F00203A2F85430704748
:10102000024A136843F48073136070470004005849
:10103000024B186800F4C060704700BF00040058FD
:1010400030B58DB005468E462B4C94E80F000DF15F
:10105000300C0CE90F0005AB04F1100207CA83E85D
:1010600007000DF1040C1C3494E80F008CE80F000D
:10107000BEF5007F07D0002314E00CAA02EB830327
:1010800053F82C5C1EE00023032B08D80CAA02EBBB
:10109000830252F8102CAA42EFD20133F4E7002564
:1010A00010E00133022B0CD80CAA02EB830252F899
:1010B0001C2CAA42F5D30CAA02EB830353F82C5C38
:1010C00000E000250D4A136823F007032B4313604B
:1010D000FFF7A6FD0446094B1B6803F00703AB426C
:1010E00006D0FFF79DFD001B0228F4D9032000E085
:1010F00000200DB030BD00BF183600080040005879
:1011000010B5B02816D90E4BDC6A4FF0B043D3F8B7
:10111000083103F00F030B4A52F82330B4FBF3F409
:10112000FFF786FF0146084BA3FB0434A00CFFF732
:1011300087FF10BDC0F30310014B53F82040E4E7D4
:101140007C360008DC36000883DE1B434FF0B043DA
:101150009B6813F00C030DD14FF0B0431B6803F0F4
:10116000F003B02B04D81B09254A52F8230070471E
:10117000B023F8E7042B3ED0082B10D04FF0B0433B
:10118000DB6803F00303022B31D0032B0FD14FF0A8
:10119000B0431B6813F4801F2BD11A4812E04FF0A4
:1011A000B0431B6813F4801F27D0174870474FF0D7
:1011B000B0431B6803F0F003B02B16D81B09104A8C
:1011C00052F823004FF0B042D368C3F3062303FB69
:1011D00000F0D368C3F302130133B0FBF3F0D3681C
:1011E0005B0F0133B0FBF3F07047B023E6E706482E
:1011F000E8E70548E6E7044870470248704700BF43
:101200007C3600080048E8010024F40008B5FFF728
:101210009DFF4FF0B0439B68C3F30313024A52F89B
:101220002330B0FBF3F008BDDC360008002800F0E6
:10123000728338B50446036813F0200F2DD04FF0A9
:10124000B0429368D26802F0030213F00C0358D046
:101250000C2B54D0E369002B00F0A0804FF0B0427B
:10126000136843F001031360FFF7DAFC05464FF003
:10127000B0431B6813F0020F00F08880636A4FF0E0
:10128000B042116821F0F0010B431360216A5368EA
:1012900023F47F4343EA01235360236813F0010FD3
:1012A00000F09A804FF0B042936803F00C03D268CC
:1012B00002F00302082B00F08B800C2B00F08580DD
:1012C0006368B3F5803F00F0B0804FF0B042136820
:1012D00023F4803313606368002B00F0AD80FFF7C8
:1012E0009FFC05464FF0B0431B6813F4003F73D1D9
:1012F000FFF796FC401B6428F4D9032016E3012A6B
:10130000A8D1E369002B00F00883606A4FF0B04376
:101310001B6803F0F003B02B21D8984221D9FFF7C6
:10132000EFFE002840F0FB82636A4FF0B042116884
:1013300021F0F0010B431360216A536823F47F43CB
:1013400043EA01235360FFF761FFBF4B1860BF4BB7
:101350001868FFF71BFC00289FD00120E6E2B023AD
:10136000DBE74FF0B042136823F0F003184310603E
:10137000216A536823F47F4343EA01235360606A80
:10138000FFF7BEFE0028DED00120CFE2FFF748FCC9
:10139000401B02287FF66BAF0320C7E24FF0B0423C
:1013A000136823F001031360FFF73AFC05464FF082
:1013B000B0431B6813F0020F3FF46FAFFFF730FC30
:1013C000401B0228F3D90320B0E2032A7FF478AF50
:1013D0006368002B00F0A582236813F0020F54D03D
:1013E0004FF0B042936803F00C03D26802F003029E
:1013F000042B33D00C2B2FD0E368002B71D04FF08F
:10140000B042136843F480731360FFF709FC05468C
:101410004FF0B0431B6813F4806F2DD1FFF700FC31
:10142000401B0228F4D9032080E24FF0B042136839
:1014300043F4803313604EE7FFF7F2FB05464FF0AD
:10144000B0431B6813F4003FC6D0FFF7E9FB401B15
:101450006428F4D9032069E2022ACDD1E368002B85
:1014600000F0618221694FF0B042536823F0FE43DF
:1014700043EA0163536008E021694FF0B0425368CA
:1014800023F0FE4343EA01635360236813F0180F0F
:1014900000F0DE806269002A00F0A38013F0100FD4
:1014A00070D04FF0B043D3F8943013F0020F2ED128
:1014B0004FF0B042D2F8943043F00103C2F89430B8
:1014C000FFF7AEFB05464FF0B043D3F8943013F06E
:1014D000020F1CD1FFF7A4FB401B0228F3D9032005
:1014E00024E24FF0B042136823F480731360FFF7D7
:1014F00097FB05464FF0B0431B6813F4806FC4D0D0
:10150000FFF78EFB401B0228F4D903200EE24FF0B8
:10151000B042D2F8943043F00403C2F89430FFF79D
:101520007FFB05464FF0B043D3F8943013F0080F1B
:1015300006D1FFF775FB401B0328F3D90320F5E123
:10154000A1694FF0B042D2F8943023F4706343EABB
:101550000123C2F89430D2F8943023F00103C2F88A
:101560009430FFF75DFB05464FF0B043D3F894305D
:1015700013F0020F6CD0FFF753FB401B0228F3D986
:101580000320D3E14FF0B042D2F8943043F001038E
:10159000C2F89430FFF744FB05464FF0B043D3F850
:1015A000943013F0020F06D1FFF73AFB401B0228DC
:1015B000F3D90320BAE14FF0B042D2F8943023F0CF
:1015C0000403C2F894304FF0B043D3F8943013F0D2
:1015D000080F3DD0FFF724FB401B0328F3D903205D
:1015E000A4E14FF0B042D2F8943023F00403C2F8E3
:1015F0009430FFF715FB05464FF0B043D3F8943015
:1016000013F0080F18D14FF0B042D2F8943023F005
:101610000103C2F89430FFF703FB05464FF0B043D7
:10162000D3F8943013F0020F12D0FFF7F9FA401BF1
:101630000228F3D9032079E1FFF7F2FA401B0328CF
:10164000DAD9032072E100BF08000020100000205A
:10165000236813F0040F68D0B74B1B6813F4807F26
:1016600027D0A368012B35D0052B3CD04FF0B043D9
:10167000D3F8902022F00102C3F89020D3F89020F4
:1016800022F00402C3F89020A368DBB3FFF7C8FA86
:1016900005464FF0B043D3F8903013F0020F44D119
:1016A000FFF7BEFA401B41F288339842F1D903207C
:1016B0003CE1FFF7B5FCFFF7B3FA05469E4B1B680C
:1016C00013F4807FCDD1FFF7ABFA401B0228F5D988
:1016D00003202BE14FF0B042D2F8903043F00103E9
:1016E000C2F89030D0E74FF0B043D3F8902042F0EA
:1016F0000402C3F89020D3F8902042F00102C3F80E
:101700009020C1E7FFF78CFA05464FF0B043D3F8BD
:10171000903013F0020F08D0FFF782FA401B41F21D
:1017200088339842F1D9032000E1236813F0400F79
:1017300033D0A36AC3B14FF0B042D2F8983043F02F
:101740000103C2F89830FFF76BFA05464FF0B0433B
:10175000D3F8983013F0020F1FD1FFF761FA401B46
:101760000228F3D90320E1E04FF0B042D2F89830DC
:1017700023F00103C2F89830FFF752FA05464FF004
:10178000B043D3F8983013F0020F06D0FFF748FAB1
:10179000401B0228F3D90320C8E0E36A002B00F0C5
:1017A000C4804FF0B042916801F00C01D268022B66
:1017B00019D00C2900F0BD804FF0B042136823F01F
:1017C00080731360FFF72CFA04464FF0B0431B6898
:1017D00013F0007F00F09780FFF722FA001B022829
:1017E000F3D90320A2E002F00303206B83420AD066
:1017F0000C2900F09C804FF0B0431B6813F0806F01
:1018000022D0012092E002F07003606B8342EFD19E
:10181000C2F30623A06B8342EAD102F47813E06B93
:101820008342E5D102F06063206C8342E0D102F094
:101830006042636C9A42DBD14FF0B0431B6813F0F7
:10184000007F44D0002071E04FF0B042136823F0D5
:1018500080731360FFF7E4F905464FF0B0431B684F
:1018600013F0007F06D0FFF7DBF9401B0228F4D904
:1018700003205BE04FF0B042D36830491940236B3E
:10188000606B0343A06B43EA0023E06B0343206CCF
:101890000343606C03431943D160136843F08073C2
:1018A0001360D36843F08053D360FFF7B9F904465F
:1018B0004FF0B0431B6813F0007F06D1FFF7B0F97B
:1018C000001B0228F4D9032030E000202EE04FF066
:1018D000B0431A6842F080721A60DA6842F08052AF
:1018E000DA60FFF79DF904464FF0B0431B6813F030
:1018F000007F06D1FFF794F9031B022BF4D90320D4
:1019000014E0002012E04FF0B042D1680C4B0B40C5
:10191000D36000200AE001207047012006E001208A
:1019200004E0012002E0012000E0002038BD012099
:10193000FCE70120FAE700BF000400588C80C111C9
:10194000FCFFFEEE002800F0278170B50C4605462E
:10195000934B1B6803F007038B422DD32B6813F0C6
:10196000020F3FD12B6813F0200F53D12B6813F0D7
:10197000400F6AD12B6813F0040F40F083802B686E
:1019800013F0080F40F097802B6813F0010F00F060
:10199000DE806B68022B00F0A880032B00F0AD8086
:1019A000002B40F0B2804FF0B042126812F0020FEC
:1019B00040F0B1800120EEE0794A136823F007037C
:1019C0000B431360FFF72CF90646754B1B6803F0B9
:1019D0000703A342C2D0FFF723F9801B0228F4D9E2
:1019E0000320D8E0AB684FF0B0418A6822F0F002E3
:1019F00013438B60FFF714F906464FF0B0439B6822
:101A000013F4803FAED1FFF70BF9801B0228F4D905
:101A10000320C0E06B694FF0B041D1F8082122F0FB
:101A2000F0021343C1F80831FFF7FAF806464FF009
:101A3000B043D3F8083113F4003F97D1FFF7F0F823
:101A4000801B0228F3D90320A5E0A9694FF0B0421A
:101A5000D2F8083123F00F0343EA1113C2F808311A
:101A6000FFF7DEF806464FF0B043D3F8083113F421
:101A7000803F7FF47FAFFFF7D3F8801B0228F2D9B5
:101A8000032088E0EB684FF0B0418A6822F4E062FE
:101A900013438B60FFF7C4F806464FF0B0439B68D2
:101AA00013F4003F7FF46BAFFFF7BAF8801B0228F6
:101AB000F3D903206FE029694FF0B042936823F413
:101AC000605343EAC1039360FFF7AAF806464FF05C
:101AD000B0439B6813F4802F7FF456AFFFF7A0F854
:101AE000801B0228F3D9032055E04FF0B042126862
:101AF00012F4003F0FD101204DE04FF0B0421268C8
:101B000012F0007F07D1012045E04FF0B04212688B
:101B100012F4806F42D04FF0B0418A6822F0030285
:101B200013438B60FFF77CF806464FF0B0439B6889
:101B300003F00C036A68B3EB820F08D0FFF770F86C
:101B4000801B41F288339842EFD9032023E0144BE5
:101B50001B6803F00703A34215D9114A136823F049
:101B6000070323431360FFF75BF805460C4B1B6824
:101B700003F00703A34206D0FFF752F8401B0228E8
:101B8000F4D9032007E0FFF741FB064B1860FFF78D
:101B90004DF8FEF7FBFF70BD012070470120FAE70A
:101BA000004000580800002008B5FFF72FFB4FF059
:101BB000B0439B68C3F30223034A52F8233003F077
:101BC0001F03D84008BD00BFBC36000808B5FFF7AA
:101BD0001DFB4FF0B0439B68C3F3C223034A52F886
:101BE000233003F01F03D84008BD00BFBC360008F7
:101BF0004FF0B041D1F88830020902F47F2223EA85
:101C00000203000100F47F200343C1F888307047CD
:101C100070B505464FF0B042136823F0806313603F
:101C2000FEF7FEFF04464FF0B0431B6813F0006F51
:101C300006D0FEF7F5FF001B0228F4D9032400E0CC
:101C400000240CB1204670BD4FF0B0431A6922F455
:101C5000FE42296842EA01221A611A6922F47812C6
:101C600069680A431A611A6842F080621A60FEF7D6
:101C7000D7FF06464FF0B0431B6813F0006F05D145
:101C8000FEF7CEFF801B0228F4D90324002CD9D103
:101C90004FF0B042136929690B431361D2E770B565
:101CA00005464FF0B042136823F080631360FEF7DF
:101CB000B7FF04464FF0B0431B6813F0006F06D027
:101CC000FEF7AEFF001B0228F4D9032400E0002435
:101CD0000CB1204670BD4FF0B0431A6922F4FE42A9
:101CE000296842EA01221A611A6922F06062A96831
:101CF0000A431A611A6842F080621A60FEF790FF88
:101D000006464FF0B0431B6813F0006F05D1FEF795
:101D100087FF801B0228F4D90324002CD9D14FF06F
:101D2000B042136929690B431361D2E770B50546C8
:101D30004FF0B042136823F080631360FEF770FF2A
:101D400004464FF0B0431B6813F0006F06D0FEF757
:101D500067FF001B0228F4D9032400E000240CB123
:101D6000204670BD4FF0B0431A6922F4FE42296844
:101D700042EA01221A611A6922F06042E9680A43C4
:101D80001A611A6842F080621A60FEF749FF06463F
:101D90004FF0B0431B6813F0006F05D1FEF740FF12
:101DA000801B0228F4D90324002CD9D14FF0B04273
:101DB000136929690B431361D2E770B504460368C0
:101DC00013F0400F2FD0036BB3F5800F21D00AD84A
:101DD00033B90430FFF71CFF064658B1054624E02E
:101DE00001252E4621E0B3F5000F1AD0B3F5400FC0
:101DF0000CD10026236B4FF0B041D1F8882022F49B
:101E000040021343C1F8883000250EE001252E461C
:101E10000BE04FF0B042D36843F48033D360002628
:101E2000E8E70026E6E700252E46236813F4006F56
:101E30000AD04FF0B043D3F8905005F44075236CAE
:101E4000AB4240F0B7803546236813F0010F09D04C
:101E5000A3694FF0B041D1F8882022F00302134368
:101E6000C1F88830236813F0020F09D0E3694FF0FE
:101E7000B041D1F8882022F440621343C1F8883081
:101E8000236813F0100F0CD0A06A4FF0B041D1F8C6
:101E90008830020C120423EA020343EA0043C1F82B
:101EA0008830236813F0200F0CD0E06A4FF0B04167
:101EB000D1F88830020C120423EA020343EA0043FB
:101EC000C1F88830236813F0040F40F0B480236811
:101ED00013F0080F40F0B380236813F4807F13D011
:101EE000636B4FF0B041D1F8882022F04062134379
:101EF000C1F88830636BB3F1006F00F0A480636BAE
:101F0000B3F1806F00F0A480236813F4007F17D032
:101F1000A36BB3F1804F05D0B3F1004F02D0002B7B
:101F200040F09E804FF0B041D1F8882022F040422E
:101F30001343C1F88830A36BB3F1C05F00F0A280F7
:101F4000236813F4806F13D0E36B4FF0B041D1F8E6
:101F5000882022F040521343C1F88830E36BB3F17C
:101F6000005F00F09680E36BB3F1805F00F0968035
:101F7000236813F4805F09D0636C4FF0B041D1F84F
:101F8000942022F440421343C1F89430236813F4A0
:101F9000005F0DD0E26C4FF0B043596A21F0300180
:101FA0000A435A62A26C596A21F003010A435A6239
:101FB000284670BDFFF734F85DB9236C4FF0B0418F
:101FC000D1F8902022F440721343C1F89030354686
:101FD0003AE74FF0B043D3F89020D3F8901041F493
:101FE0008031C3F89010D3F8901021F48031C3F8F9
:101FF000901022F44072216C0A43C3F89020D3F869
:10200000903013F0010F12D0FEF70AFE05464FF094
:10201000B043D3F8903013F0020F0AD1FEF700FE60
:10202000401B41F288339842F1D903250CE735462D
:102030000AE7354608E7206AFFF7DAFD47E7606AF6
:10204000FFF7D6FD48E7CB6843F08073CB6056E7D7
:10205000201DFFF724FE00283FF456AF054653E746
:1020600023F080534FF0B042D2F8881021F0404165
:10207000C2F88810D2F8881021F040610B43C2F8F2
:10208000883058E74FF0B042D36843F08073D36094
:1020900056E7CB6843F48033CB6064E7201DFFF73D
:1020A00045FE00283FF464AF054661E74FF0B042BB
:1020B000136843F004031360704738B504460268A0
:1020C000D36823F0A003D360FEF7AAFD054623687A
:1020D000DB6813F0200F07D1FEF7A2FD401BB0F51F
:1020E0007A7FF4D9032000E0002038BD38B50368BA
:1020F000DA6812F0400F01D0002038BD04464FF0DE
:10210000FF32DA60FEF78CFD05462368DB6813F0CA
:10211000400F07D1FEF784FD431BB3F57A7FF4D956
:102120000320EAE70020E8E700286BD010B504465A
:1021300090F8213063B1022384F82130324BDB6800
:1021400013F0100F09D0012384F82130002010BDB6
:1021500080F82030FEF7B4FBEDE72368CA225A620C
:10216000236853225A622046FFF7C0FF38B1236824
:10217000FF225A62042384F821300120E7E7226815
:10218000936823F4E00323F04003936021688A6896
:10219000636820690343A069034313438B6023688A
:1021A000E2681A6122681369A16843EA0143136176
:1021B0002268D36823F08003D3602268D36C23F0B5
:1021C0000303D3642168CB6CE26960690243134363
:1021D000CB6423689B6813F0200F03D02368FF2291
:1021E0005A62B0E72046FFF768FF0028F6D0236860
:1021F000FF225A62042384F82130002384F820301F
:102200000120A4E70120704700280040026852E83E
:10221000003F23F4907342E800310029F6D10268B0
:1022200002F1080353E8003F23F0805323F0010339
:10223000083242E800310029F1D1C36E012B06D0EB
:102240002023C0F88C300023C366436770470268C0
:1022500052E8003F23F0100342E800310029F6D194
:10226000EEE7000070B50446016883680269134315
:1022700042691343C269134308688B4A02401A43F8
:102280000A602268536823F44053E1680B435360AB
:10229000A1692268854B9A4201D0236A1943936849
:1022A00023F06E4323F430630B4393602268D36AB8
:1022B00023F00F03616A0B43D36222687C4B9A427E
:1022C00014D07A4B9A4225D0102378498A4240D0C4
:1022D000E069B0F5004F7AD0013B072B00F2D680C1
:1022E000DFE803F0A5A3D4BED4D4D4C14FF0B043EB
:1022F000D3F8883003F00303032B09D8DFE803F099
:1023000002041F060123E0E70423DEE70823DCE7DD
:102310001023DAE74FF0B043D3F8883003F440637A
:10232000B3F5006F0DD005D86BB1B3F5806F0CD14C
:102330000423CAE7B3F5406F09D10823C5E7022398
:10234000C3E70223C1E70023BFE71023BDE7102343
:10235000BBE7082B00F28A80DFE803F008883788A3
:102360003488888805004FF4004003E0FFF71CFC28
:1023700000287DD0626A4F4B33F81220B0FBF2F395
:10238000656805EB4501994274D8B3EB053F73D8F6
:10239000002633463146FDF72BFF090241EA106162
:1023A00000026B08C0182A46334641F10001FDF7D0
:1023B0001FFFA0F54072404B9A425FD82368D86057
:1023C000304664E0FEF7C2FED2E73C48D2E7013B6C
:1023D000072B55D8DFE803F0060454265454540A5A
:1023E000364803E0FFF7F2FB00284BD0626A314B1E
:1023F00033F81230B0FBF3F06268530803EB40038C
:10240000B3FBF2F3A3F110014FF6EF7291423BD808
:102410009AB222F00F02C3F3420313432268D3603F
:10242000002034E0FEF792FEDEE7244802E0FFF7EA
:10243000CDFBA8B3626A1F4B33F81230B0FBF3F048
:10244000636800EB5300B0FBF3F0A0F110024FF60D
:10245000EF739A4226D8236880B2D860002016E035
:10246000FEF774FEE5E74FF40040E3E701200EE0DD
:1024700000200CE001200AE0012008E0012006E035
:10248000012004E0002002E0012000E001200123FF
:10249000A4F86A30A4F8683000236367A36770BDAE
:1024A0000020F4E70120F2E7F369FFCF008000404D
:1024B000003801401C370008FFFC0F000024F40026
:1024C000836A13F0010F06D00268536823F40033C7
:1024D000C16A0B435360836A13F0020F06D002688F
:1024E000536823F48033016B0B435360836A13F00A
:1024F000040F06D00268536823F48023416B0B431A
:102500005360836A13F0080F06D00268536823F4FF
:102510000043816B0B435360836A13F0100F06D0A6
:102520000268936823F48053C16B0B439360836A02
:1025300013F0200F06D00268936823F40053016C57
:102540000B439360836A13F0400F0AD0026853680C
:1025500023F48013416C0B435360436CB3F5801F2D
:102560000BD0836A13F0800F06D00268536823F4FF
:102570000023C16C0B43536070470268536823F417
:10258000C003816C0B435360EBE72DE9F84305462C
:102590000F4616469946DDF820802B68DC6937EA3D
:1025A00004040CBF01240024B44232D1B8F1FF3F2F
:1025B000F3D0FEF735FBA0EB090040452CD8B8F16D
:1025C000000F2BD02B681A6812F0040FE5D0DA69DF
:1025D00012F0080F11D1DA6912F4006FDDD04FF458
:1025E00000621A622846FFF711FE2023C5F89030DA
:1025F000002385F8843003200CE008241C62284660
:10260000FFF704FEC5F89040002385F884300120D0
:1026100000E00020BDE8F8830320FBE70320F9E792
:102620002DE9F04182B01E46D0F88830202B5AD1D7
:1026300004460D469046002959D00AB9012053E0BE
:102640000023C0F890302123C0F88830FEF7E8FA64
:102650000746A4F85480A4F85680A368B3F5805FB9
:1026600002D04FF0000816E0236943B34FF0000892
:1026700011E02023C4F88830032035E038F8023B0D
:102680002268C3F308039362B4F8562092B2013A69
:1026900092B2A4F85620B4F856309BB293B100968B
:1026A0003B46002280212046FFF76FFF0028E0D143
:1026B000002DE3D015F8012B23689A62E4E7A846C1
:1026C0000025E8E700963B46002240212046FFF720
:1026D0005CFF18B92023C4F8883005E02023C4F833
:1026E0008830032000E0022002B0BDE8F081012024
:1026F000FAE730B583B004460023C0F89030FEF707
:102700008FFA05462268126812F0080F10D123686C
:102710001B6813F0040F28D12023C4F88830C4F8B4
:102720008C300020E066206784F8840003B030BD60
:102730006FF07E430093034600224FF400112046C1
:10274000FFF723FF0028E2D0226852E8003F23F081
:10275000800342E800310029F6D12023C4F88830F4
:10276000002384F884300320E0E76FF07E43009379
:102770002B4600224FF480012046FFF706FF002879
:10278000CAD0226852E8003F23F4907342E8003137
:102790000029F6D1226802F1080353E8003F23F034
:1027A0000103083242E800310029F3D12023C4F8A4
:1027B0008C30002384F884300320B7E778B310B559
:1027C0000446D0F888300BB32423C4F8883022683C
:1027D000136823F0010313602046FFF743FD01282F
:1027E00013D0A36ABBB92268536823F490435360A3
:1027F0002268936823F02A0393602268136843F0E9
:10280000010313602046FFF774FF10BD80F8843089
:10281000FEF70AF9D8E72046FFF752FEE3E701206A
:1028200070470000436E2BB90123A0F86A30A0F86E
:102830006830704730B403689A68C2F3426299689E
:10284000490F094D6B5CDB00084C615C93FBF1F3B5
:10285000A0F86A30AB5CDB00A25C93FBF2F3A0F85B
:10286000683030BC704700BF3C3700083437000880
:1028700090F88430012B18D0012380F88430242371
:10288000C0F8883003681A68196821F001011960DE
:1028900022F000520023436601680A602022C0F83B
:1028A000882080F88430184670470220704738B579
:1028B00090F88430012B1DD00446012380F8843029
:1028C0002423C0F8883003681D681A6822F00102CA
:1028D0001A600268936823F0604319439160FFF720
:1028E000A1FF23681D602023C4F88830002084F8ED
:1028F000840038BD0220FCE738B590F88430012B05
:102900001DD00446012380F884302423C0F8883089
:1029100003681D681A6822F001021A600268936851
:1029200023F0606319439160FFF77CFF23681D600B
:102930002023C4F88830002084F8840038BD0220A9
:10294000FCE7B0F8403023F47E535B045B0CA0F846
:1029500040300020704784B0844601A880E80E0013
:102960000123ACF840300020ACF84000ACF8440043
:10297000ACF8500004B07047D458C4500433C418A5
:102980008C42F9D37047036004308842FBD3704710
:102990000C488546FDF7E2FF0B480C490C4A002322
:1029A000FFF7EDFF0B480C490C4A0023FFF7E7FF48
:1029B0000B480C490023FFF7E8FF00F03FF8FDF754
:1029C00005FFFEE70000032008000020640000204F
:1029D000883700080000032000000320E4370008C7
:1029E000640000209C050020FEE700000EB400B546
:1029F0009CB01DAB029006906FF000410948079112
:102A00000491094953F8042B05910068019302A928
:102A100000F086F9029B00221A701CB05DF804EBEE
:102A200003B07047140000200802FFFF0244034671
:102A3000934200D1704703F8011BF9E770B50D4DC3
:102A40000D4C641BA4100026A64209D10B4D0C4C62
:102A500000F0D6FD641BA4100026A64205D170BD6F
:102A600055F8043B98470136EEE755F8043B984784
:102A70000136F2E780370008803700088037000809
:102A8000843700087047704738B50546002941D0A3
:102A900051F8043C0C1F002BB8BFE41800F0D8F824
:102AA0001D4A136833B9636014602846BDE8384096
:102AB00000F0D4B8A34208D9206821188B4201BF86
:102AC00019685B6809182160EDE71A465B680BB16D
:102AD000A342FAD911685018A0420BD120680144D2
:102AE000501883421160E0D118685B685360084455
:102AF0001060DAE702D90C232B60D6E72068211892
:102B00008B4204BF19685B68636004BF09182160C9
:102B10005460CAE738BD00BF9405002070B50F4E61
:102B20000C463168054611B900F0AAFB3060214619
:102B3000284600F0A5FB431C03D14FF0FF3420468C
:102B400070BDC41C24F00304A042F8D0211A28460A
:102B500000F096FB0130F2D1EFE700BF90050020B6
:102B60002DE9F041CD1C25F0030508350C2D38BFAB
:102B70000C25002D064601DBA94204D90C23336045
:102B80000020BDE8F081314F00F062F83B681C4640
:102B900044BB29463046FFF7C1FF431C044650D1D1
:102BA0003C682146002941D1002C44D0236830469E
:102BB00004EB030800F064FB80453CD121686D1AEA
:102BC00029463046FFF7AAFF013034D023682B4452
:102BD00023603B68002B36D05A68A24229D10022DC
:102BE0005A600EE02268521B1DD40B2A16D96119B7
:102BF000A342256018BF5960636808BF39606251FD
:102C00004B60304600F02AF804F10B00231D20F041
:102C10000700C21AB5D01B1AA350B2E7A3426268DC
:102C2000DED13A60EDE723466468B1E70C464968B7
:102C3000B8E71346CEE70C233360304600F00EF8B9
:102C40009EE70560DDE75B60FFDE00BF94050020C6
:102C50000148FFF717BF00BF8C0500200148FFF7B0
:102C600012BF00BF8C0500202DE9F0478E681F467B
:102C7000BE420B6882460C4690462DD8B1F90C2016
:102C800012F4906F26D06569096905EB4505A3EB41
:102C9000010905EBD5757B1C4B446D109D4238BF77
:102CA0001D46530527D52946FFF75AFF064660B350
:102CB00021694A4600F0F4FAA38923F4906343F0B3
:102CC0008003A381266165614E44A5EB090526605A
:102CD000A5603E46BE4200D93E4620683246414687
:102CE00000F0B4FAA3689B1BA360236833442360FD
:102CF0000020BDE8F0872A4600F0E0FA06460028EA
:102D0000E0D121695046FFF7BFFE0C23CAF800301E
:102D1000A38943F04003A3814FF0FF30E9E70000AF
:102D20002DE9F04F98468B891B069DB007460D464E
:102D3000144610D50B6973B94021FFF711FF2860C5
:102D4000286130B90C233B604FF0FF301DB0BDE867
:102D5000F08F40236B610023099320238DF82930E5
:102D6000CDF80C803023DFF89C818DF82A304FF0AD
:102D7000010923469A4613F8012B0AB1252AF9D1F5
:102D8000BAEB040B0BD05B46224629463846FFF7C8
:102D90006BFF013000F0A780099A5A4409929AF813
:102DA0000030002B00F09F8000234FF0FF32CDE970
:102DB00005230AF1010A049307938DF853301A93FF
:102DC0005446052214F8011B4E48FDF7C1F9049A38
:102DD000D8B9D00644BF20238DF85330110744BF23
:102DE0002B238DF853309AF800302A2B15D0079AF0
:102DF000544600204FF00A0C214611F8013B303BAD
:102E0000092B4BD9B0B1079214E0A0EB080309FAE3
:102E100003F313430493A246D2E7039B191D1B68D7
:102E20000391002BBBBF5B4242F002020793079362
:102E3000B8BF049223782E2B0AD163782A2B32D183
:102E4000039B1A1D1B68039243EAE3730234059344
:102E5000DFF8C0A0217803225046FDF779F938B198
:102E6000049BA0EB0A0040228240134301340493E8
:102E700014F8011B24488DF828100622FDF768F984
:102E8000002836D0214B1BBB039B073323F00703DD
:102E900008330393099B334409936AE70CFB02321E
:102EA0000C460120A8E700230134059319464FF092
:102EB0000A0C204610F8012B303A092A03D9002BBE
:102EC000C6D00591C4E70CFB012104460123F0E7BD
:102ED00003AB00932A460E4B04A93846AFF300809B
:102EE000421C0646D6D1AB895B063FF52DAF09984B
:102EF0002CE703AB00932A46054B04A9384600F0A3
:102F000079F8EDE7443700084E370008000000006C
:102F1000692C00084A3700082DE9F0471646984604
:102F20008A680B69DDF820909342B8BF134633607E
:102F300091F8432007460C460AB1013333602368F9
:102F4000990642BF336802333360256815F00605E1
:102F500006D104F1190AE36832689B1AAB4226DCF9
:102F600094F843302268003B18BF012392062BD40B
:102F700004F1430241463846C84701301ED0236859
:102F8000226903F00603042B02BFE5683368ED1ADB
:102F9000A3680CBF25EAE57500259342C4BF9B1AC0
:102FA000ED1800261A34B5421AD1002008E001239A
:102FB000524641463846C847013003D14FF0FF30F2
:102FC000BDE8F0870135C6E7E1185A1C302081F8CA
:102FD0004300224494F8451082F843100233C7E7B7
:102FE0000123224641463846C8470130E6D0013623
:102FF000D9E700002DE9FF470F7E0C9E782F914600
:1030000080460C469A4601F1430207D8622F0AD83F
:10301000002F00F0DD80582F00F0C38004F142063D
:1030200084F842703AE0A7F16303152BF6D801A1AA
:1030300051F823F08D300008A13000081D30000841
:103040001D3000081D3000081D300008A1300008A8
:103050001D3000081D3000081D3000081D3000081C
:10306000B73100082F3100086F3100081D3000080B
:103070001D300008D93100081D3000082F3100082C
:103080001D3000081D3000087731000833681A1D14
:103090001B68326004F1420684F842300123A8E044
:1030A00031682368081D30601E0601D50D6803E0F5
:1030B0005D06FBD5B1F900506168002D78DA2D204E
:1030C000002984F84300A1602DDA5E486D420A238E
:1030D0001646B5FBF3F103FB1157C75D06F8017DFA
:1030E0002F46BB420D46F4D9082B0BD12368DF07CE
:1030F00008D5236961689942DEBF302306F8013C98
:1031000006F1FF36921B2261CDF800A04B4603AAC0
:1031100021464046FFF700FF01306FD14FF0FF30EE
:1031200004B0BDE8F08723F004032360CDE72168F5
:103130003368080653F8045B02D4490648BFADB2B1
:103140006F2F4048336014BF0A230823002184F8FE
:1031500043106668A660002EBADB216821F00401E6
:103160002160002DB4D1002EB2D11646BCE72368F1
:1031700043F0200323603448782784F8457023689F
:1031800031681F0651F8045B02D45F0648BFADB238
:103190003160D90744BF43F0200323601DB11023E1
:1031A000D4E72848E9E7236823F020032360F6E703
:1031B00024480A23CDE7336825686169181D30600B
:1031C0002E061B6801D5196002E06806FBD5198040
:1031D00000232361164697E733681A1D32601E6884
:1031E000626800213046FCF7B3FF08B1801B6060C5
:1031F00063682361002384F8433085E723693246FE
:1032000049464046D047013088D023689B0714D4F4
:10321000E068039B9842B8BF184681E70123324615
:1032200049464046D04701303FF478AF0135E36866
:1032300003995B1AAB42F1DCEAE7002504F11906B9
:10324000F5E700BF5537000866370008884210B51B
:1032500001EB020402D98442234607D8431EA1424F
:1032600008D011F8012B03F8012FF8E702440146BA
:103270008A4200D110BD13F8014D02F8014DF7E765
:1032800038B5064D0023044608462B6000F04CF884
:10329000431C02D12B6803B1236038BD8805002090
:1032A0000A44914200F1FF3300D1704710B511F884
:1032B000014B03F8014F9142F9D110BD2DE9F041C6
:1032C000804615460C4621B9BDE8F0411146FFF78E
:1032D00047BC2AB9FFF7D8FB00242046BDE8F0819F
:1032E00000F01AF88542064602D8B5EB500FF4D824
:1032F00029464046FFF734FC07460028ECD0B5428B
:103300002A46214628BF3246FFF7CAFF21464046DB
:10331000FFF7BAFB3C46E0E751F8043C181F002BCE
:10332000BCBF0B58C0187047044A05491368002BEE
:1033300008BF0B46184410601846704798050020D7
:10334000A00500202DE9F047089D0C46002B4ED12A
:1033500094468C458646B2FA82F262D94AB1C2F1ED
:103360002003914020FA03F30CFA02FC194300FAFF
:1033700002FE4FEA1C471FFA8CF6B1FBF7F44FEA46
:103380001E4307FB141143EA014304FB06F1994273
:103390000AD91CEB030304F1FF3080F0138199423A
:1033A00040F21081023C6344591A1FFA8EF3B1FBBC
:1033B000F7F007FB101143EA014300FB06F69E42BB
:1033C0000AD91CEB030300F1FF3180F0FD809E421F
:1033D00040F2FA80634402389B1B40EA044000211B
:1033E0001DB1D3400022C5E90032BDE8F0878B4211
:1033F00005D90DB1C5E9000100210846F5E7B3FA8A
:1034000083F1002946D1A34202D39042C0F0F1805B
:10341000861A64EB03030120002DE6D0C5E90063A2
:10342000E3E7002A40F09180A1EB0C044FEA1C482E
:103430001FFA8CF70121B4FBF8F64FEA1E4308FB94
:10344000164443EA044307FB06F0984208D91CEBF4
:10345000030306F1FF3402D2984200F2CE802646E2
:103460001C1A1FFA8EF3B4FBF8F008FB104443EA71
:10347000044300FB07F79F4208D91CEB030300F14C
:10348000FF3402D29F4200F2B1802046DB1B40EAAB
:103490000640A5E7C1F120068B4022FA06F71F433C
:1034A00020FA06FC04FA01F343EA0C03F44000FAA4
:1034B00001F8380C4FEA1349B4FBF0FE1FFA87FC01
:1034C00000FB1E4449EA04440EFB0CF9A14502FA34
:1034D00001F20AD93C190EF1FF3A80F08580A1452E
:1034E00040F28280AEF1020E3C44A4EB09041FFAC4
:1034F00083F9B4FBF0F300FB134449EA044403FBF3
:103500000CFCA44507D93C1903F1FF3068D2A4454F
:1035100066D9023B3C4443EA0E40A0FB0293A4EB75
:103520000C049C42CE469C4652D34FD055B1B8EBCA
:103530000E0364EB0C0404FA06F6CB40CC401E43A9
:10354000C5E900640021BDE8F087C2F1200320FA3C
:1035500003F10CFA02FC24FA03F394400C434FEA03
:103560001C4800FA02FE1FFA8CF7B3FBF8F008FBC8
:103570001031230C43EA014300FB07F1994208D9BB
:103580001CEB030300F1FF362CD299422AD90238F2
:1035900063445B1AA4B2B3FBF8F108FB113344EAAD
:1035A000034401FB07F3A34208D91CEB040401F117
:1035B000FF3613D2A34211D902396444E41A41EA16
:1035C000004138E70446EFE6084605E7C845ADD2B6
:1035D000B9EB020E63EB070C0138A7E73146EDE7C4
:1035E000034698E73046D4E7D6467EE76344023880
:1035F0004CE70646234608460EE7023E63442FE7A3
:10360000F8B500BFF8BC08BC9E467047F8B500BFCF
:08361000F8BC08BC9E4670479F
:1036180012000000240000003600000040000000F6
:10362800060000000C000000100000000000000070
:103638000100000002000000030000001B5B303B9B
:10364800304800001B5B324A000000007465737448
:10365800000000000D0A4B657970616420427574A2
:10366800746F6E20707265737365643A20202563E9
:1036780000000000A0860100400D0300801A06002B
:1036880000350C0040420F0080841E0000093D00F8
:1036980000127A000024F40000366E010048E801A8
:1036A800006CDC02000000000000000000000000C8
:1036B8000000000000000000000000000000000002
:1036C80000000000010000000200000003000000EC
:1036D80004000000010000000300000005000000D5
:1036E8000100000001000000060000000A000000C0
:1036F8002000000002000000040000000800000094
:1037080010000000400000008000000000010000E0
:1037180000020000010002000400060008000A0080
:103728000C00100020004000800000010804020482
:10373800080101010101010307010000232D302BBD
:103748002000686C4C00656667454647003031329A
:1037580033343536373839414243444546003031F1
:103768003233343536373839616263646566000050
:08377800CCFBFF7F0100000003
:0437800049020008F2
:043784002502000812
:1037880000093D00010000001000000018000020A2
:103798000000000050040020B8040020200500208C
:1037A8000000000000000000000000000000000011
:1037B8000000000000000000000000000000000001
:1037C80000000000000000000000000000000000F1
:0C37D800000000000000000000000000E5
:040000050800299135
:00000001FF
